:020000040800F2
:100000000807002089010008931200082311000846
:10001000911200088F020008FD1400080000000083
:10002000000000000000000000000000971200081F
:1000300091020008000000009512000899120008C3
:10004000A3010008A3010008A3010008A301000800
:10005000A3010008A3010008A3010008A3010008F0
:10006000A3010008A3010008A3010008A3010008E0
:10007000A3010008A3010008A3010008A3010008D0
:10008000A3010008A3010008A3010008A3010008C0
:10009000A3010008A3010008A3010008A3010008B0
:1000A000A3010008A3010008A3010008A3010008A0
:1000B000FD120008A3010008A3010008A301000825
:1000C000A3010008A3010008A3010008A301000880
:1000D000A3010008A3010008A3010008A301000870
:1000E000A3010008A3010008A301000800F002F822
:1000F00000F03AF80AA090E8000C82448344AAF188
:100100000107DA4501D100F02FF8AFF2090EBAE885
:100110000F0013F0010F18BFFB1A43F0010318473B
:100120004814000068140000103A24BF78C878C151
:10013000FAD8520724BF30C830C144BF04680C60ED
:10014000704700000023002400250026103A28BF35
:1001500078C1FBD8520728BF30C148BF0B60704739
:100160001FB51FBD10B510BD00F058F81146FFF7C0
:10017000F7FF01F0D5F900F076F803B4FFF7F2FFCE
:1001800003BC00F07DF8000009488047094800479B
:10019000FEE7FEE7FEE7FEE7FEE7FEE7FEE7FEE737
:1001A000FEE7FEE704480549054A064B7047000094
:1001B000FB120008ED0000080801002008070020DD
:1001C00008030020080300204FF0000200B513468A
:1001D00094469646203922BFA0E80C50A0E80C5067
:1001E000B1F12001BFF4F7AF090728BFA0E80C5018
:1001F00048BF0CC05DF804EB890028BF40F8042B11
:1002000008BF704748BF20F8022B11F0804F18BF7D
:1002100000F8012B7047704770477047754600F033
:100220002BF8AE4605006946534620F00700854688
:1002300018B020B5FFF7B6FFBDE820404FF000062C
:100240004FF000074FF000084FF0000B21F00701BE
:10025000AC46ACE8C009ACE8C009ACE8C009ACE801
:10026000C0098D46704710B50446AFF300802046A4
:10027000BDE81040FFF781BF00487047A400002090
:1002800001491820ABBEFEE7260002007047FEE7DA
:10029000704772B6FEE700002DE9F84FDFF8B8911D
:1002A000002409F1040A0AF1040B23460F270BF17D
:1002B000040EC9E00125A5402A40AA427DD1674E1F
:1002C000D1F804C0ACEB0608B44532D014DCBCF164
:1002D000030F3AD009DCBCF1000F2AD0BCF1010FAA
:1002E0001CD0BCF1020F31D11DE0BCF1110F17D0B1
:1002F000BCF1120F2AD119E0B8F5881F19D006DC1D
:10030000B8F5803F15D0B8F5801F1FD111E0B8F5C2
:10031000001F0ED0B8F5041F18D10AE0CB6815E015
:10032000CB681B1D12E0CB6808330FE0CB680C33A1
:100330000CE08B682BB1012B4FF0080303D0456113
:1003400004E0042302E0056100E00023FF2A01D855
:10035000064601E000F104064FEA840501D9A5F143
:100360002005D6F8008007FA05FC28EA0C0803FAF5
:1003700005F548EA0508C6F800804D68ED0062D52D
:10038000374DAE6946F00106AE61AD6924F0030653
:1003900005F001050095334D06EB050CDCF808501F
:1003A000A607360F07FA06F825EA0805DFF8B88031
:1003B000404503D14FF0000817E044E0DFF8AC807F
:1003C000404502D14FF001080FE0DFF8A48040451E
:1003D00002D14FF0020808E0DFF89880404502D1D2
:1003E0004FF0030801E04FF0040808FA06F848EA65
:1003F0000508CCF808804D68D9F80060ED034D463B
:1004000001D5164300E096432E604D68DAF800608F
:10041000AD03554601D5164300E096432E604D6866
:10042000DBF80060ED025D4601D5164300E096431F
:100430002E604D68DEF80060AD02754601D51643AA
:1004400000E096432E60641C0D682A46E5407FF468
:1004500031AFBDE8F88F000000040140000011102A
:10046000001002400000014000080140000C014063
:1004700000100140001401400AB1016170470904F5
:10048000FBE700000148806870470000080000207A
:10049000024881680278114481607047080000209A
:1004A000074810B5016841F010010160032000F019
:1004B00075F80F2000F006F800F024F8002010BDB9
:1004C0000020024070B50D4D04464FF47A71287833
:1004D000B1FBF0F00A490968B1FBF0F000F0ECFA6A
:1004E00048B9102C07D200222146501E00F036F8E1
:1004F00000206C6070BD012070BD0000080000206D
:10050000140000200C4808B5816941F001018161A7
:10051000816901F001010091C16941F08051C1611F
:10052000C06900F0805000900448416821F0E0610B
:1005300041F00071416008BD001002400000014020
:10054000002809DB00F01F020121914040098000D2
:1005500000F1E020C0F8001170470000F0B40E4B2D
:100560001B680C46C3F30223C3F10705042D00D911
:100570000425191D072901D2002300E0DB1E0126F6
:1005800006FA05F1491E214099409E40761E16400C
:100590003143F0BC00F0B3BF0CED00E0064900F0C1
:1005A000070208684FF6FF03184040EA0220034A9A
:1005B00010430860704700000CED00E00000FA05F1
:1005C0002DE9F0470F46050061D0434E306800F03A
:1005D0000700B84209D2306820F007003843306085
:1005E000306800F00700B84251D128683B4C8107C1
:1005F00012D5400703D5606840F4E0606060287859
:10060000000703D5606840F4605060606068A968C6
:1006100020F0F000084360602878C00728D06868A0
:10062000012810D02168022810D0890700292EDA6D
:10063000616821F0030101436160FFF723FF8046F9
:1006400041F288390DE021688903EFE78901EDE780
:10065000FFF718FFA0EB0801494502D90320BDE8C8
:10066000F0876068696800F00C00B0EB810FEFD193
:10067000306800F00700B8420BD9306820F007005E
:1006800038433060306800F00700B84201D00120E4
:10069000E5E72878400705D56068E96820F4E06060
:1006A000084360602878000706D56068296920F44F
:1006B000605040EAC100606000F038F86168084AA4
:1006C000C1F30311515CC840064908600648006840
:1006D000FFF7F8FE0020C2E70020024000100240B1
:1006E00050150008140000200C00002004480549A3
:1006F00000684968044AC1F30221515CC840704750
:10070000140000200010024060150008044805494C
:1007100000684968044AC1F3C221515CC84070476F
:1007200014000020001002406015000812A185B0DE
:100730000FC98DE80F0014A0144A00680490516896
:10074000134801F00C03042B10D0082B0ED1C1F379
:100750008343C9031DF803000AD5516804AAC1F3F5
:100760004041515C0A4A5043B0FBF1F005B070477C
:1007700008494843FAE70000020304050607080990
:100780000A0B0C0D0E0F10100102000000100240A9
:1007900000127A0000093D002DE9F84F040070D0E6
:1007A0002078C04DC00749D06868C0F38100012897
:1007B00007D06868C0F38100022809D16868C003C7
:1007C00006D52868800339D560680028E7D035E071
:1007D0006068B0F5803F0BD010B1B0F5A02F11D0FC
:1007E000286820F480302860286820F4802002E007
:1007F000286840F480302860606890B1FFF742FEBE
:1008000006460AE0286840F480202860F0E700BF30
:10081000FFF738FE801B642873D828688003F7D55B
:100820000CE0FFF72FFE064605E000BFFFF72AFEAB
:10083000801B6428F0D828688003F7D420789A4E6B
:1008400080074FF001094FF0000839D5686810F0B3
:100850000C0F07D06868C0F38100022809D16868CE
:10086000C00306D42868800714D52069012808D160
:1008700010E02069B0B1C6F80090FFF703FE07460C
:1008800005E00AE1FFF7FEFDC01B0228C4D8286876
:100890008007F7D52868616920F0F80040EAC100B8
:1008A00028600DE0C6F80080FFF7ECFD074604E085
:1008B000FFF7E8FDC01B022823D828688007F7D47B
:1008C000207800072CD57948A169D9B1C0F80090EB
:1008D000FFF7D8FD074604E0FFF7D4FDC01B022850
:1008E0000FD8686A8007F7D571484FF4FA5100684D
:1008F000B0FBF1F0009000BF0098411E0091FAD2C9
:100900000EE080E0C0F80080FFF7BCFD074604E081
:10091000FFF7B8FDC01B022875D8686A8007F7D4B6
:100920002078400760D5E8690027C00008D4E8694E
:1009300040F08050E861E869012700F080500090A5
:100940005C480168C90513D40168834641F480718D
:100950000160FFF797FD824606E000BFFFF792FDBA
:10096000A0EB0A0064284ED8DBF80000C005F5D5DE
:10097000E06801280AD008B1052813D0286A20F0C1
:1009800001002862286A20F0040002E0286A40F092
:1009900001002862E06841F2883B98B1FFF772FDE0
:1009A00082460BE0286A40F004002862EEE700BFB0
:1009B000FFF768FDA0EB0A0159455AD8286A80075D
:1009C000F6D50CE0FFF75EFD824605E0FFF75AFD25
:1009D000A0EB0A0159454CD8286A8007F6D41FB10C
:1009E000E86920F08050E861E06988B36968C1F384
:1009F0008101022944D00228C6F8608004D0FFF7A4
:100A000041FD044638E034E0FFF73CFD074604E0D2
:100A1000FFF738FDC01B02282BD828688001F7D4C7
:100A2000206AB0F5803F05D16868A16820F40030E5
:100A300008436860D4E908010843696821F4741127
:100A400008436860C6F86090FFF71CFD044606E0A6
:100A500025E000BFFFF716FD001B022809D8286813
:100A60008001F7D51BE000BFFFF70CFD001B02283B
:100A700002D90320BDE8F88F28688001F4D40EE085
:100A80000128F7D06868226A00F48031914204D1CD
:100A9000616A00F47010884201D00120EAE700206A
:100AA000E8E7000000100240000042428004424299
:100AB000140000200070004010B5401EB0F1807F8F
:100AC00001D3012010BD4FF0E02460610F216017B9
:100AD00000F015FD0020A06107202061002010BD5E
:100AE0007047704770B590F83C20012A26D0012449
:100AF00080F83C40022280F83D2003685A689D68D7
:100B000022F070060A6832435A600D4B02689A421E
:100B100008D0B2F1804F05D00A4B9A4202D00A4B5E
:100B20009A4204D1496825F080031943916080F806
:100B30003D40002180F83C10084670BD022070BD89
:100B4000002C0140000400400008004010B50400E3
:100B500003D094F83D0010B107E0012010BD002043
:100B600084F83C00204600F01FF8022084F83D0085
:100B7000211D206800F0C8FB012084F8460084F89D
:100B80003E0084F83F0084F8400084F8410084F877
:100B9000420084F8430084F8440084F8450084F857
:100BA0003D00002010BD000008B50068B0F1804F86
:100BB00008D10548C16941F00101C161C06900F077
:100BC0000100009008BD00000010024090F83D10A8
:100BD000012901D001207047022180F83D100168F1
:100BE000CA6842F00102CA6000680B49884208D016
:100BF000B0F1804F05D00949884202D008498842A7
:100C000004D1816801F00701062903D0016841F091
:100C10000101016000207047002C014000040040E9
:100C20000008004070B5044690F83C00012817D039
:100C3000012584F83C50022084F83D002068826839
:100C400022F0770222F47F4282600868502830D078
:100C50000DDC20284DD005DC98B310283BD148E0AE
:100C6000022070BD302844D0402834D139E06028BB
:100C700028D0702806D0B0F5805F2CD0B0F5005F8A
:100C800029D10AE0CB68D1E90121206800F072FB8C
:100C90002068816841F0770109E0CB68D1E9012142
:100CA000206800F067FB2068816841F48041816022
:100CB00011E0CA684968206800F06EFB5021206886
:100CC00007E016E0CA684968206800F076FB6021FA
:100CD000206800F059FB84F83D50002084F83C0067
:100CE00070BDCA684968206800F056FB4021206842
:100CF000EFE7226801461046EBE7704770B50446FF
:100D0000006801694FF00005C943890715D4C1681F
:100D1000C943890711D4E91E0161012020772068A9
:100D200080698007204602D0FFF7E7FF04E000F06B
:100D300098F8204600F096F8257720680169C943A5
:100D4000490717D4C168C943490713D46FF0040198
:100D50000161022020772068806910F4407F2046DE
:100D600002D0FFF7CAFF04E000F07BF8204600F055
:100D700079F8257720680169C943090716D4C16845
:100D8000C943090712D46FF00801016104202077DC
:100D90002068C0698007204602D0FFF7AEFF04E05C
:100DA00000F05FF8204600F05DF8257720680169C3
:100DB000C943C90617D4C168C943C90613D46FF023
:100DC00010010161082020772068C06910F4407F7D
:100DD000204602D0FFF791FF04E000F042F82046E1
:100DE00000F040F8257720680169C943C90708D198
:100DF000C168C943C90704D1891E0161204600F0BA
:100E000033F820680169C943090609D4C168C94398
:100E1000090605D46FF0800101612046FFF760FEEE
:100E200020680169C943490609D4C168C943490614
:100E300005D46FF040010161204600F0AFF8206852
:100E40000169C94389060BD4C168C943890607D41F
:100E50006FF0200101612046BDE87040FFF741BE00
:100E600070BD7047704700002DE9FF5F42A41ECCA3
:100E70008DE81E000068B0F1804F7BD1424C002508
:100E80006068401C6060502809D1512060604FF6B6
:100E9000FF730F2269463D4800F0EAF8656020685C
:100EA000DFF8EC80401CDFF8ECA04FF4A0774FF4A3
:100EB00000794FF4804B2060A02812D3401C2060A2
:100EC000B8420ED2002220214046FFF7D5FA012277
:100ED00049465046FFF7D0FA012259462E48FFF7FF
:100EE000CBFA20684FF4F076401C2060B84212D351
:100EF000401C2060B0420ED2012220214046FFF764
:100F0000BBFA002249465046FFF7B6FA012259467D
:100F10002148FFF7B1FA20684FF42077401C206089
:100F2000B04212D3401C2060B8420ED201222021D0
:100F30004046FFF7A1FA012249465046FFF79CFAC6
:100F4000002259461448FFF797FA2068401C206099
:100F5000B8420FD3012259460F482560FFF78CFA9B
:100F6000012220214046FFF787FA012249465046D8
:100F7000FFF782FABDE8FF9F68656C6C6F207769A8
:100F80006E646F7773210A0000000020600000206B
:100F900000080140000C014000100140704770B58E
:100FA000040004D094F83D00002510B106E00120B3
:100FB00070BD84F83C50204600F022F8242084F8CC
:100FC0003D002068C16821F40051C160204600F056
:100FD00007FA2068016921F49041016120684169A4
:100FE00021F02A0141612068C16841F40051C160CB
:100FF0002564202084F83D0084F83E00002070BD68
:1010000030B585B0002400940194029403940068E4
:101010001449884224D11448816941F48041816196
:10102000816901F480410491816941F00401816189
:1010300080690E4D00F0040004904FF400700090A1
:10104000022001900320039069462846FFF724F907
:101050002815CDE90004694628460294FFF71CF9DB
:1010600005B030BD003801400010024000080140CA
:101070002DE9F843044690F83D001F4616460D46FC
:1010800020284CD1C5B1BEB194F83C00012846D00F
:10109000012084F83C004FF00008C4F84080212073
:1010A00084F83D00FFF7EEF9A6848146E684A06847
:1010B000B0F5805F03D004E00120BDE8F88320692B
:1010C00028B12E465FF0000584F83C800EE0002633
:1010D000FAE78021204600F0DFF9A0B9AEB116F89A
:1010E000010B21684860E08C401EE084E08C4B4698
:1010F0004FF0000200970028EBD14FF0400120464E
:1011000000F0CAF930B10320D7E735F8020BC0F37D
:101110000800E6E7202084F83D000020CDE702200B
:10112000CBE7FEE72DE9F04786B000242D48009478
:10113000019402940394816941F0100181618169F5
:1011400001F010010491816941F020018161816900
:1011500001F020010491816941F0040181618169FC
:1011600001F004010491816941F008018161806905
:10117000DFF8748000F008004FF4804504900022EE
:1011800029464046FFF778F9DFF8609000222021D9
:101190004846FFF771F9DFF858A06F110022394671
:1011A0005046FFF769F90095022601250396CDE91F
:1011B000015469464046FFF76FF82020CDE900054D
:1011C000CDE9024669464846FFF766F80097039660
:1011D000CDE9015469465046FFF75EF806B0BDE818
:1011E000F08700000010024000100140000801409C
:1011F000000C014010B586B00024164800940194FC
:101200000294039404944FF08041059401604721B7
:10121000C0E901144FF6FF71C0E903148461FFF7C0
:1012200095FC08B1FFF735F84FF4805000906946FF
:101230000848FFF7F7FC08B1FFF72BF8049404A95E
:1012400004480594FFF74EFC002801D0FFF721F871
:1012500006B010BD180000200C4810B50A49016006
:101260004FF4E1314160002181600C22C160C0E98E
:1012700004128161C161FFF792FE002803D0BDE82E
:101280001040FFF706B810BD003801406000002094
:10129000FEE7FEE770477047FFF7FAB830B58FB04A
:1012A00028216846FEF790FF14210AA8FEF78CFF5C
:1012B00001210804CDE900100024029402250491C4
:1012C000CDE907504FF4E01009906846FFF764FA43
:1012D00008B172B6FEE70F20CDE90A054FF4806031
:1012E000CDE90C4002210AA80E94FFF769F9002805
:1012F00001D072B6FEE70FB030BD70470148FFF76E
:10130000FDBC000018000020F0B50268164B174C19
:10131000174D4FF08047984205D0B84203D0A04205
:1013200001D0A84203D122F070064A6832439842A5
:1013300005D0B84203D0A04201D0A84203D122F484
:101340004074CA6822434C6922F080022243026042
:101350008A68C2620A688262984201D1096901639F
:1013600001214161F0BD0000002C0140000400405B
:101370000008004010B5846842EA032224F47F4448
:101380000A432243826010BD826822F070020A4341
:1013900042F007018160704710B5036A046A24F0C7
:1013A00001040462846924F0F00444EA021423F086
:1013B0000A020A438461026210BD10B5036A23F079
:1013C000100303628369046A23F4704343EA023220
:1013D00024F0A00343EA01118261016210BD000004
:1013E00070B5044600680169E26821F44051114378
:1013F00001612169A0680843616908432168CA68DE
:1014000041F20C639A430243CA6020684169A269B1
:1014100021F44071114341611E492068884202D184
:10142000FFF774F901E0FFF761F900EBC00101EB90
:101430000012606864218000B2FBF0F3B3FBF1F3AB
:101440006FF018067343B2FBF0F5B2FBF0F605EB54
:101450008305322303EB0515B5FBF1F5B6FBF1F679
:1014600005F0F00505EB0615B2FBF0F6B2FBF0F067
:10147000B0FBF1F06FF01802504306EB800003EB75
:101480000010B0FBF1F0216800F00F0028448860E4
:1014900070BD0000003801402DE9F0419846174624
:1014A0000E460446069D1DE0681C1BD02DB1FEF7BC
:1014B000E9FFA0EB0800A84214D92068C16821F414
:1014C000D071C1602068416921F001014161202093
:1014D00084F83D0084F83E00002084F83C0003209E
:1014E000BDE8F0812068006836EA000004D00020E2
:1014F000B842D9D00020F3E70120F9E7FEE7090759
:10150000090E002804DB00F1E02080F80014704789
:1015100000F00F0000F1E02080F8141D704700007B
:10152000FEF7BEFFFFF7BAFEFFF7FCFDFFF762FE16
:10153000FFF792FE002211461C20FFF70FF81C2037
:10154000FEF7FEFF0148FFF741FBFEE71800002011
:101550000000000000000000010203040607080963
:1015600000000000010203048815000800000020AC
:101570001800000028010008A0150008180000202D
:10158000F006000044010008000000000000000018
:101590000100000010000000000000000024F40022
:04000005080000ED02
:00000001FF
